{
  "contractName": "DistributorRole",
  "abi": [
    {
      "inputs": [],
      "payable": false,
      "stateMutability": "nonpayable",
      "type": "constructor"
    },
    {
      "anonymous": false,
      "inputs": [
        {
          "indexed": true,
          "internalType": "address",
          "name": "DistributorAddress",
          "type": "address"
        }
      ],
      "name": "DistributorAdded",
      "type": "event"
    },
    {
      "anonymous": false,
      "inputs": [
        {
          "indexed": true,
          "internalType": "address",
          "name": "DistributorAddress",
          "type": "address"
        }
      ],
      "name": "DistributorRemoved",
      "type": "event"
    },
    {
      "anonymous": false,
      "inputs": [
        {
          "indexed": true,
          "internalType": "address",
          "name": "oldOwner",
          "type": "address"
        },
        {
          "indexed": true,
          "internalType": "address",
          "name": "newOwner",
          "type": "address"
        }
      ],
      "name": "TransferOwnership",
      "type": "event"
    },
    {
      "constant": true,
      "inputs": [],
      "name": "isOwner",
      "outputs": [
        {
          "internalType": "bool",
          "name": "",
          "type": "bool"
        }
      ],
      "payable": false,
      "stateMutability": "view",
      "type": "function"
    },
    {
      "constant": true,
      "inputs": [],
      "name": "owner",
      "outputs": [
        {
          "internalType": "address",
          "name": "",
          "type": "address"
        }
      ],
      "payable": false,
      "stateMutability": "view",
      "type": "function"
    },
    {
      "constant": false,
      "inputs": [],
      "name": "renounceOwnership",
      "outputs": [],
      "payable": false,
      "stateMutability": "nonpayable",
      "type": "function"
    },
    {
      "constant": false,
      "inputs": [
        {
          "internalType": "address",
          "name": "newOwner",
          "type": "address"
        }
      ],
      "name": "transferOwnership",
      "outputs": [],
      "payable": false,
      "stateMutability": "nonpayable",
      "type": "function"
    },
    {
      "constant": true,
      "inputs": [
        {
          "internalType": "address",
          "name": "account",
          "type": "address"
        }
      ],
      "name": "isDistributor",
      "outputs": [
        {
          "internalType": "bool",
          "name": "",
          "type": "bool"
        }
      ],
      "payable": false,
      "stateMutability": "view",
      "type": "function"
    },
    {
      "constant": false,
      "inputs": [
        {
          "internalType": "address",
          "name": "account",
          "type": "address"
        }
      ],
      "name": "addDistributor",
      "outputs": [],
      "payable": false,
      "stateMutability": "nonpayable",
      "type": "function"
    },
    {
      "constant": false,
      "inputs": [],
      "name": "renounceDistributor",
      "outputs": [],
      "payable": false,
      "stateMutability": "nonpayable",
      "type": "function"
    }
  ],
  "bytecode": "0x608060405234801561001057600080fd5b50336000806101000a81548173ffffffffffffffffffffffffffffffffffffffff021916908373ffffffffffffffffffffffffffffffffffffffff1602179055506000809054906101000a900473ffffffffffffffffffffffffffffffffffffffff1673ffffffffffffffffffffffffffffffffffffffff16600073ffffffffffffffffffffffffffffffffffffffff167f5c486528ec3e3f0ea91181cff8116f02bfa350e03b8b6f12e00765adbb5af85c60405160405180910390a36100dc336100e160201b60201c565b6102cf565b6100f981600161013f60201b6106eb1790919060201c565b8073ffffffffffffffffffffffffffffffffffffffff167fddbf200aa634dc3fb81cfd68583dd1040d1c751d335e1d86b631bde3e977fea860405160405180910390a250565b600073ffffffffffffffffffffffffffffffffffffffff168173ffffffffffffffffffffffffffffffffffffffff16141561017957600080fd5b610189828261023d60201b60201c565b156101df576040517f08c379a000000000000000000000000000000000000000000000000000000000815260040180806020018281038252602c815260200180610b22602c913960400191505060405180910390fd5b60018260000160008373ffffffffffffffffffffffffffffffffffffffff1673ffffffffffffffffffffffffffffffffffffffff16815260200190815260200160002060006101000a81548160ff0219169083151502179055505050565b60008073ffffffffffffffffffffffffffffffffffffffff168273ffffffffffffffffffffffffffffffffffffffff16141561027857600080fd5b8260000160008373ffffffffffffffffffffffffffffffffffffffff1673ffffffffffffffffffffffffffffffffffffffff16815260200190815260200160002060009054906101000a900460ff16905092915050565b610844806102de6000396000f3fe608060405234801561001057600080fd5b506004361061007d5760003560e01c80638da5cb5b1161005b5780638da5cb5b146100da5780638f0c86fa146101245780638f32d59b14610180578063f2fde38b146101a25761007d565b8063644241db14610082578063715018a61461008c5780637250e22414610096575b600080fd5b61008a6101e6565b005b6100946101f1565b005b6100d8600480360360208110156100ac57600080fd5b81019080803573ffffffffffffffffffffffffffffffffffffffff1690602001909291905050506102c1565b005b6100e2610348565b604051808273ffffffffffffffffffffffffffffffffffffffff1673ffffffffffffffffffffffffffffffffffffffff16815260200191505060405180910390f35b6101666004803603602081101561013a57600080fd5b81019080803573ffffffffffffffffffffffffffffffffffffffff169060200190929190505050610371565b604051808215151515815260200191505060405180910390f35b61018861038e565b604051808215151515815260200191505060405180910390f35b6101e4600480360360208110156101b857600080fd5b81019080803573ffffffffffffffffffffffffffffffffffffffff1690602001909291905050506103e5565b005b6101ef33610402565b565b6101f961038e565b61020257600080fd5b600073ffffffffffffffffffffffffffffffffffffffff166000809054906101000a900473ffffffffffffffffffffffffffffffffffffffff1673ffffffffffffffffffffffffffffffffffffffff167f5c486528ec3e3f0ea91181cff8116f02bfa350e03b8b6f12e00765adbb5af85c60405160405180910390a360008060006101000a81548173ffffffffffffffffffffffffffffffffffffffff021916908373ffffffffffffffffffffffffffffffffffffffff160217905550565b6102ca33610371565b61033c576040517f08c379a000000000000000000000000000000000000000000000000000000000815260040180806020018281038252601c8152602001807f43616c6c6572206d7573742062652061204469737472696275746f720000000081525060200191505060405180910390fd5b6103458161045c565b50565b60008060009054906101000a900473ffffffffffffffffffffffffffffffffffffffff16905090565b60006103878260016104b690919063ffffffff16565b9050919050565b60008060009054906101000a900473ffffffffffffffffffffffffffffffffffffffff1673ffffffffffffffffffffffffffffffffffffffff163373ffffffffffffffffffffffffffffffffffffffff1614905090565b6103ed61038e565b6103f657600080fd5b6103ff81610548565b50565b61041681600161064090919063ffffffff16565b8073ffffffffffffffffffffffffffffffffffffffff167f126174f6cf49c81cdb4a9214c6b8f037bef55b4ec31e4fc776cea2a1c8a88d5960405160405180910390a250565b6104708160016106eb90919063ffffffff16565b8073ffffffffffffffffffffffffffffffffffffffff167fddbf200aa634dc3fb81cfd68583dd1040d1c751d335e1d86b631bde3e977fea860405160405180910390a250565b60008073ffffffffffffffffffffffffffffffffffffffff168273ffffffffffffffffffffffffffffffffffffffff1614156104f157600080fd5b8260000160008373ffffffffffffffffffffffffffffffffffffffff1673ffffffffffffffffffffffffffffffffffffffff16815260200190815260200160002060009054906101000a900460ff16905092915050565b600073ffffffffffffffffffffffffffffffffffffffff168173ffffffffffffffffffffffffffffffffffffffff16141561058257600080fd5b8073ffffffffffffffffffffffffffffffffffffffff166000809054906101000a900473ffffffffffffffffffffffffffffffffffffffff1673ffffffffffffffffffffffffffffffffffffffff167f5c486528ec3e3f0ea91181cff8116f02bfa350e03b8b6f12e00765adbb5af85c60405160405180910390a3806000806101000a81548173ffffffffffffffffffffffffffffffffffffffff021916908373ffffffffffffffffffffffffffffffffffffffff16021790555050565b600073ffffffffffffffffffffffffffffffffffffffff168173ffffffffffffffffffffffffffffffffffffffff16141561067a57600080fd5b61068482826104b6565b61068d57600080fd5b60008260000160008373ffffffffffffffffffffffffffffffffffffffff1673ffffffffffffffffffffffffffffffffffffffff16815260200190815260200160002060006101000a81548160ff0219169083151502179055505050565b600073ffffffffffffffffffffffffffffffffffffffff168173ffffffffffffffffffffffffffffffffffffffff16141561072557600080fd5b61072f82826104b6565b15610785576040517f08c379a000000000000000000000000000000000000000000000000000000000815260040180806020018281038252602c8152602001806107e4602c913960400191505060405180910390fd5b60018260000160008373ffffffffffffffffffffffffffffffffffffffff1673ffffffffffffffffffffffffffffffffffffffff16815260200190815260200160002060006101000a81548160ff021916908315150217905550505056fe546865206163636f756e742073686f756c646e2774206861766520616e792070726576696f757320726f6c65a265627a7a723158206622b09f92daa83461731eacf1cfbb788cd5cfd4d3a422e3330dc5b4805e929164736f6c63430005100032546865206163636f756e742073686f756c646e2774206861766520616e792070726576696f757320726f6c65",
  "source": "pragma solidity >0.4.24;\r\n\r\n// Import the library 'Roles'\r\nimport \"./Roles.sol\";\r\nimport \"../coffeecore/Ownable.sol\";\r\n// Define a contract 'DistributorRole' to manage this role - add, remove, check\r\ncontract DistributorRole is Ownable {\r\n  using Roles for Roles.Role;\r\n  // Define 2 events, one for Adding, and other for Removing\r\n  event DistributorAdded(address indexed DistributorAddress);\r\n  event DistributorRemoved(address indexed DistributorAddress);\r\n  // Define a struct 'distributors' by inheriting from 'Roles' library, struct Role\r\n  Roles.Role private distributors;\r\n  // In the constructor make the address that deploys this contract the 1st distributor\r\n  constructor() public {\r\n    _addDistributor(msg.sender);\r\n  }\r\n\r\n  // Define a modifier that checks to see if msg.sender has the appropriate role\r\n  modifier onlyDistributor() {\r\n      require(isDistributor(msg.sender),\"Caller must be a Distributor\");\r\n    _;\r\n  }\r\n\r\n  // Define a function 'isDistributor' to check this role\r\n  function isDistributor(address account) public view returns (bool) {\r\n      return distributors.has(account);\r\n  }\r\n\r\n  // Define a function 'addDistributor' that adds this role\r\n  function addDistributor(address account) public onlyDistributor {\r\n      _addDistributor(account);\r\n  }\r\n\r\n  // Define a function 'renounceDistributor' to renounce this role\r\n  function renounceDistributor() public {\r\n      _removeDistributor(msg.sender);\r\n  }\r\n\r\n  // Define an internal function '_addDistributor' to add this role, called by 'addDistributor'\r\n  function _addDistributor(address account) internal {\r\n       distributors.add(account);\r\n       emit DistributorAdded(account);\r\n  }\r\n\r\n  // Define an internal function '_removeDistributor' to remove this role, called by 'removeDistributor'\r\n  function _removeDistributor(address account) internal {\r\n      distributors.remove(account);\r\n      emit DistributorRemoved(account);\r\n  }\r\n}",
  "sourcePath": "D:\\Solidity-Udacity\\Project6\\nd1309-Project-6b-Example-Template\\project-6\\contracts\\coffeeaccesscontrol\\DistributorRole.sol",
  "compiler": {
    "name": "solc",
    "version": "0.5.16+commit.9c3226ce.Emscripten.clang"
  },
  "schemaVersion": "3.0.23",
  "updatedAt": "2020-05-12T18:44:58.846Z",
  "devdoc": {
    "methods": {}
  },
  "userdoc": {
    "methods": {
      "isOwner()": {
        "notice": "Check if the calling address is the owner of the contract"
      },
      "owner()": {
        "notice": "Look up the address of the owner"
      },
      "renounceOwnership()": {
        "notice": "Define a function to renounce ownerhip"
      },
      "transferOwnership(address)": {
        "notice": "Define a public function to transfer ownership"
      }
    }
  }
}